{
  "_format": "hh-sol-artifact-1",
  "contractName": "EducationCredential",
  "sourceName": "contracts/EducationCredential.sol",
  "abi": [
    {
      "inputs": [
        {
          "internalType": "address",
          "name": "initialOwner",
          "type": "address"
        }
      ],
      "stateMutability": "nonpayable",
      "type": "constructor"
    },
    {
      "inputs": [
        {
          "internalType": "address",
          "name": "sender",
          "type": "address"
        },
        {
          "internalType": "uint256",
          "name": "tokenId",
          "type": "uint256"
        },
        {
          "internalType": "address",
          "name": "owner",
          "type": "address"
        }
      ],
      "name": "ERC721IncorrectOwner",
      "type": "error"
    },
    {
      "inputs": [
        {
          "internalType": "address",
          "name": "operator",
          "type": "address"
        },
        {
          "internalType": "uint256",
          "name": "tokenId",
          "type": "uint256"
        }
      ],
      "name": "ERC721InsufficientApproval",
      "type": "error"
    },
    {
      "inputs": [
        {
          "internalType": "address",
          "name": "approver",
          "type": "address"
        }
      ],
      "name": "ERC721InvalidApprover",
      "type": "error"
    },
    {
      "inputs": [
        {
          "internalType": "address",
          "name": "operator",
          "type": "address"
        }
      ],
      "name": "ERC721InvalidOperator",
      "type": "error"
    },
    {
      "inputs": [
        {
          "internalType": "address",
          "name": "owner",
          "type": "address"
        }
      ],
      "name": "ERC721InvalidOwner",
      "type": "error"
    },
    {
      "inputs": [
        {
          "internalType": "address",
          "name": "receiver",
          "type": "address"
        }
      ],
      "name": "ERC721InvalidReceiver",
      "type": "error"
    },
    {
      "inputs": [
        {
          "internalType": "address",
          "name": "sender",
          "type": "address"
        }
      ],
      "name": "ERC721InvalidSender",
      "type": "error"
    },
    {
      "inputs": [
        {
          "internalType": "uint256",
          "name": "tokenId",
          "type": "uint256"
        }
      ],
      "name": "ERC721NonexistentToken",
      "type": "error"
    },
    {
      "inputs": [
        {
          "internalType": "address",
          "name": "owner",
          "type": "address"
        }
      ],
      "name": "OwnableInvalidOwner",
      "type": "error"
    },
    {
      "inputs": [
        {
          "internalType": "address",
          "name": "account",
          "type": "address"
        }
      ],
      "name": "OwnableUnauthorizedAccount",
      "type": "error"
    },
    {
      "anonymous": false,
      "inputs": [
        {
          "indexed": true,
          "internalType": "address",
          "name": "owner",
          "type": "address"
        },
        {
          "indexed": true,
          "internalType": "address",
          "name": "approved",
          "type": "address"
        },
        {
          "indexed": true,
          "internalType": "uint256",
          "name": "tokenId",
          "type": "uint256"
        }
      ],
      "name": "Approval",
      "type": "event"
    },
    {
      "anonymous": false,
      "inputs": [
        {
          "indexed": true,
          "internalType": "address",
          "name": "owner",
          "type": "address"
        },
        {
          "indexed": true,
          "internalType": "address",
          "name": "operator",
          "type": "address"
        },
        {
          "indexed": false,
          "internalType": "bool",
          "name": "approved",
          "type": "bool"
        }
      ],
      "name": "ApprovalForAll",
      "type": "event"
    },
    {
      "anonymous": false,
      "inputs": [
        {
          "indexed": false,
          "internalType": "uint256",
          "name": "_fromTokenId",
          "type": "uint256"
        },
        {
          "indexed": false,
          "internalType": "uint256",
          "name": "_toTokenId",
          "type": "uint256"
        }
      ],
      "name": "BatchMetadataUpdate",
      "type": "event"
    },
    {
      "anonymous": false,
      "inputs": [
        {
          "indexed": false,
          "internalType": "uint256",
          "name": "_tokenId",
          "type": "uint256"
        }
      ],
      "name": "MetadataUpdate",
      "type": "event"
    },
    {
      "anonymous": false,
      "inputs": [
        {
          "indexed": true,
          "internalType": "address",
          "name": "previousOwner",
          "type": "address"
        },
        {
          "indexed": true,
          "internalType": "address",
          "name": "newOwner",
          "type": "address"
        }
      ],
      "name": "OwnershipTransferred",
      "type": "event"
    },
    {
      "anonymous": false,
      "inputs": [
        {
          "indexed": true,
          "internalType": "address",
          "name": "from",
          "type": "address"
        },
        {
          "indexed": true,
          "internalType": "address",
          "name": "to",
          "type": "address"
        },
        {
          "indexed": true,
          "internalType": "uint256",
          "name": "tokenId",
          "type": "uint256"
        }
      ],
      "name": "Transfer",
      "type": "event"
    },
    {
      "inputs": [
        {
          "internalType": "address",
          "name": "to",
          "type": "address"
        },
        {
          "internalType": "uint256",
          "name": "tokenId",
          "type": "uint256"
        }
      ],
      "name": "approve",
      "outputs": [],
      "stateMutability": "nonpayable",
      "type": "function"
    },
    {
      "inputs": [
        {
          "internalType": "address",
          "name": "owner",
          "type": "address"
        }
      ],
      "name": "balanceOf",
      "outputs": [
        {
          "internalType": "uint256",
          "name": "",
          "type": "uint256"
        }
      ],
      "stateMutability": "view",
      "type": "function"
    },
    {
      "inputs": [
        {
          "internalType": "uint256",
          "name": "tokenId",
          "type": "uint256"
        }
      ],
      "name": "getApproved",
      "outputs": [
        {
          "internalType": "address",
          "name": "",
          "type": "address"
        }
      ],
      "stateMutability": "view",
      "type": "function"
    },
    {
      "inputs": [
        {
          "internalType": "uint256",
          "name": "tokenId",
          "type": "uint256"
        }
      ],
      "name": "getCertificateMetadata",
      "outputs": [
        {
          "internalType": "string",
          "name": "studentName",
          "type": "string"
        },
        {
          "internalType": "string",
          "name": "institution",
          "type": "string"
        },
        {
          "internalType": "string",
          "name": "course",
          "type": "string"
        },
        {
          "internalType": "uint256",
          "name": "issueDate",
          "type": "uint256"
        },
        {
          "internalType": "string",
          "name": "certificateTokenURI",
          "type": "string"
        }
      ],
      "stateMutability": "view",
      "type": "function"
    },
    {
      "inputs": [
        {
          "internalType": "address",
          "name": "owner",
          "type": "address"
        },
        {
          "internalType": "address",
          "name": "operator",
          "type": "address"
        }
      ],
      "name": "isApprovedForAll",
      "outputs": [
        {
          "internalType": "bool",
          "name": "",
          "type": "bool"
        }
      ],
      "stateMutability": "view",
      "type": "function"
    },
    {
      "inputs": [],
      "name": "name",
      "outputs": [
        {
          "internalType": "string",
          "name": "",
          "type": "string"
        }
      ],
      "stateMutability": "view",
      "type": "function"
    },
    {
      "inputs": [],
      "name": "owner",
      "outputs": [
        {
          "internalType": "address",
          "name": "",
          "type": "address"
        }
      ],
      "stateMutability": "view",
      "type": "function"
    },
    {
      "inputs": [
        {
          "internalType": "uint256",
          "name": "tokenId",
          "type": "uint256"
        }
      ],
      "name": "ownerOf",
      "outputs": [
        {
          "internalType": "address",
          "name": "",
          "type": "address"
        }
      ],
      "stateMutability": "view",
      "type": "function"
    },
    {
      "inputs": [],
      "name": "renounceOwnership",
      "outputs": [],
      "stateMutability": "nonpayable",
      "type": "function"
    },
    {
      "inputs": [
        {
          "internalType": "address",
          "name": "to",
          "type": "address"
        },
        {
          "internalType": "string",
          "name": "studentName",
          "type": "string"
        },
        {
          "internalType": "string",
          "name": "institution",
          "type": "string"
        },
        {
          "internalType": "string",
          "name": "course",
          "type": "string"
        },
        {
          "internalType": "uint256",
          "name": "issueDate",
          "type": "uint256"
        },
        {
          "internalType": "string",
          "name": "uri",
          "type": "string"
        }
      ],
      "name": "safeMint",
      "outputs": [
        {
          "internalType": "uint256",
          "name": "",
          "type": "uint256"
        }
      ],
      "stateMutability": "nonpayable",
      "type": "function"
    },
    {
      "inputs": [
        {
          "internalType": "address",
          "name": "from",
          "type": "address"
        },
        {
          "internalType": "address",
          "name": "to",
          "type": "address"
        },
        {
          "internalType": "uint256",
          "name": "tokenId",
          "type": "uint256"
        }
      ],
      "name": "safeTransferFrom",
      "outputs": [],
      "stateMutability": "nonpayable",
      "type": "function"
    },
    {
      "inputs": [
        {
          "internalType": "address",
          "name": "from",
          "type": "address"
        },
        {
          "internalType": "address",
          "name": "to",
          "type": "address"
        },
        {
          "internalType": "uint256",
          "name": "tokenId",
          "type": "uint256"
        },
        {
          "internalType": "bytes",
          "name": "data",
          "type": "bytes"
        }
      ],
      "name": "safeTransferFrom",
      "outputs": [],
      "stateMutability": "nonpayable",
      "type": "function"
    },
    {
      "inputs": [
        {
          "internalType": "address",
          "name": "operator",
          "type": "address"
        },
        {
          "internalType": "bool",
          "name": "approved",
          "type": "bool"
        }
      ],
      "name": "setApprovalForAll",
      "outputs": [],
      "stateMutability": "nonpayable",
      "type": "function"
    },
    {
      "inputs": [
        {
          "internalType": "bytes4",
          "name": "interfaceId",
          "type": "bytes4"
        }
      ],
      "name": "supportsInterface",
      "outputs": [
        {
          "internalType": "bool",
          "name": "",
          "type": "bool"
        }
      ],
      "stateMutability": "view",
      "type": "function"
    },
    {
      "inputs": [],
      "name": "symbol",
      "outputs": [
        {
          "internalType": "string",
          "name": "",
          "type": "string"
        }
      ],
      "stateMutability": "view",
      "type": "function"
    },
    {
      "inputs": [
        {
          "internalType": "uint256",
          "name": "tokenId",
          "type": "uint256"
        }
      ],
      "name": "tokenURI",
      "outputs": [
        {
          "internalType": "string",
          "name": "",
          "type": "string"
        }
      ],
      "stateMutability": "view",
      "type": "function"
    },
    {
      "inputs": [
        {
          "internalType": "address",
          "name": "from",
          "type": "address"
        },
        {
          "internalType": "address",
          "name": "to",
          "type": "address"
        },
        {
          "internalType": "uint256",
          "name": "tokenId",
          "type": "uint256"
        }
      ],
      "name": "transferFrom",
      "outputs": [],
      "stateMutability": "nonpayable",
      "type": "function"
    },
    {
      "inputs": [
        {
          "internalType": "address",
          "name": "newOwner",
          "type": "address"
        }
      ],
      "name": "transferOwnership",
      "outputs": [],
      "stateMutability": "nonpayable",
      "type": "function"
    }
  ],
  "bytecode": "0x608060405234801561001057600080fd5b5060405161317c38038061317c83398181016040528101906100329190610272565b806040518060400160405280601381526020017f456475636174696f6e43726564656e7469616c000000000000000000000000008152506040518060400160405280600381526020017f454455000000000000000000000000000000000000000000000000000000000081525081600090816100ae91906104ef565b5080600190816100be91906104ef565b505050600073ffffffffffffffffffffffffffffffffffffffff168173ffffffffffffffffffffffffffffffffffffffff16036101335760006040517f1e4fbdf700000000000000000000000000000000000000000000000000000000815260040161012a91906105d0565b60405180910390fd5b6101428161014960201b60201c565b50506105eb565b6000600760009054906101000a900473ffffffffffffffffffffffffffffffffffffffff16905081600760006101000a81548173ffffffffffffffffffffffffffffffffffffffff021916908373ffffffffffffffffffffffffffffffffffffffff1602179055508173ffffffffffffffffffffffffffffffffffffffff168173ffffffffffffffffffffffffffffffffffffffff167f8be0079c531659141344cd1fd0a4f28419497f9722a3daafe3b4186f6b6457e060405160405180910390a35050565b600080fd5b600073ffffffffffffffffffffffffffffffffffffffff82169050919050565b600061023f82610214565b9050919050565b61024f81610234565b811461025a57600080fd5b50565b60008151905061026c81610246565b92915050565b6000602082840312156102885761028761020f565b5b60006102968482850161025d565b91505092915050565b600081519050919050565b7f4e487b7100000000000000000000000000000000000000000000000000000000600052604160045260246000fd5b7f4e487b7100000000000000000000000000000000000000000000000000000000600052602260045260246000fd5b6000600282049050600182168061032057607f821691505b602082108103610333576103326102d9565b5b50919050565b60008190508160005260206000209050919050565b60006020601f8301049050919050565b600082821b905092915050565b60006008830261039b7fffffffffffffffffffffffffffffffffffffffffffffffffffffffffffffffff8261035e565b6103a5868361035e565b95508019841693508086168417925050509392505050565b6000819050919050565b6000819050919050565b60006103ec6103e76103e2846103bd565b6103c7565b6103bd565b9050919050565b6000819050919050565b610406836103d1565b61041a610412826103f3565b84845461036b565b825550505050565b600090565b61042f610422565b61043a8184846103fd565b505050565b5b8181101561045e57610453600082610427565b600181019050610440565b5050565b601f8211156104a35761047481610339565b61047d8461034e565b8101602085101561048c578190505b6104a06104988561034e565b83018261043f565b50505b505050565b600082821c905092915050565b60006104c6600019846008026104a8565b1980831691505092915050565b60006104df83836104b5565b9150826002028217905092915050565b6104f88261029f565b67ffffffffffffffff811115610511576105106102aa565b5b61051b8254610308565b610526828285610462565b600060209050601f8311600181146105595760008415610547578287015190505b61055185826104d3565b8655506105b9565b601f19841661056786610339565b60005b8281101561058f5784890151825560018201915060208501945060208101905061056a565b868310156105ac57848901516105a8601f8916826104b5565b8355505b6001600288020188555050505b505050505050565b6105ca81610234565b82525050565b60006020820190506105e560008301846105c1565b92915050565b612b82806105fa6000396000f3fe608060405234801561001057600080fd5b50600436106101165760003560e01c806378557867116100a2578063a22cb46511610071578063a22cb465146102f7578063b88d4fde14610313578063c87b56dd1461032f578063e985e9c51461035f578063f2fde38b1461038f57610116565b806378557867146102575780638da5cb5b1461028757806395d89b41146102a557806397cd8c1c146102c357610116565b806323b872dd116100e957806323b872dd146101b557806342842e0e146101d15780636352211e146101ed57806370a082311461021d578063715018a61461024d57610116565b806301ffc9a71461011b57806306fdde031461014b578063081812fc14610169578063095ea7b314610199575b600080fd5b61013560048036038101906101309190611e90565b6103ab565b6040516101429190611ed8565b60405180910390f35b6101536103bd565b6040516101609190611f83565b60405180910390f35b610183600480360381019061017e9190611fdb565b61044f565b6040516101909190612049565b60405180910390f35b6101b360048036038101906101ae9190612090565b61046b565b005b6101cf60048036038101906101ca91906120d0565b610481565b005b6101eb60048036038101906101e691906120d0565b610583565b005b61020760048036038101906102029190611fdb565b6105a3565b6040516102149190612049565b60405180910390f35b61023760048036038101906102329190612123565b6105b5565b604051610244919061215f565b60405180910390f35b61025561066f565b005b610271600480360381019061026c91906122af565b610683565b60405161027e919061215f565b60405180910390f35b61028f610769565b60405161029c9190612049565b60405180910390f35b6102ad610793565b6040516102ba9190611f83565b60405180910390f35b6102dd60048036038101906102d89190611fdb565b610825565b6040516102ee9594939291906123ac565b60405180910390f35b610311600480360381019061030c9190612447565b610acf565b005b61032d60048036038101906103289190612528565b610ae5565b005b61034960048036038101906103449190611fdb565b610b0a565b6040516103569190611f83565b60405180910390f35b610379600480360381019061037491906125ab565b610b1c565b6040516103869190611ed8565b60405180910390f35b6103a960048036038101906103a49190612123565b610bb0565b005b60006103b682610c36565b9050919050565b6060600080546103cc9061261a565b80601f01602080910402602001604051908101604052809291908181526020018280546103f89061261a565b80156104455780601f1061041a57610100808354040283529160200191610445565b820191906000526020600020905b81548152906001019060200180831161042857829003601f168201915b5050505050905090565b600061045a82610c97565b5061046482610d1f565b9050919050565b61047d8282610478610d5c565b610d64565b5050565b600073ffffffffffffffffffffffffffffffffffffffff168273ffffffffffffffffffffffffffffffffffffffff16036104f35760006040517f64a0ae920000000000000000000000000000000000000000000000000000000081526004016104ea9190612049565b60405180910390fd5b60006105078383610502610d5c565b610d76565b90508373ffffffffffffffffffffffffffffffffffffffff168173ffffffffffffffffffffffffffffffffffffffff161461057d578382826040517f64283d7b0000000000000000000000000000000000000000000000000000000081526004016105749392919061264b565b60405180910390fd5b50505050565b61059e83838360405180602001604052806000815250610ae5565b505050565b60006105ae82610c97565b9050919050565b60008073ffffffffffffffffffffffffffffffffffffffff168273ffffffffffffffffffffffffffffffffffffffff16036106285760006040517f89c62b6400000000000000000000000000000000000000000000000000000000815260040161061f9190612049565b60405180910390fd5b600360008373ffffffffffffffffffffffffffffffffffffffff1673ffffffffffffffffffffffffffffffffffffffff168152602001908152602001600020549050919050565b610677610f90565b6106816000611017565b565b600061068d610f90565b6000600860008154809291906106a2906126b1565b9190505590506106b288826110dd565b6106bc81846110fb565b6040518060a001604052808881526020018781526020018681526020018581526020018481525060096000838152602001908152602001600020600082015181600001908161070b91906128a5565b50602082015181600101908161072191906128a5565b50604082015181600201908161073791906128a5565b5060608201518160030155608082015181600401908161075791906128a5565b50905050809150509695505050505050565b6000600760009054906101000a900473ffffffffffffffffffffffffffffffffffffffff16905090565b6060600180546107a29061261a565b80601f01602080910402602001604051908101604052809291908181526020018280546107ce9061261a565b801561081b5780601f106107f05761010080835404028352916020019161081b565b820191906000526020600020905b8154815290600101906020018083116107fe57829003601f168201915b5050505050905090565b6060806060600060606000600960008881526020019081526020016000206040518060a001604052908160008201805461085e9061261a565b80601f016020809104026020016040519081016040528092919081815260200182805461088a9061261a565b80156108d75780601f106108ac576101008083540402835291602001916108d7565b820191906000526020600020905b8154815290600101906020018083116108ba57829003601f168201915b505050505081526020016001820180546108f09061261a565b80601f016020809104026020016040519081016040528092919081815260200182805461091c9061261a565b80156109695780601f1061093e57610100808354040283529160200191610969565b820191906000526020600020905b81548152906001019060200180831161094c57829003601f168201915b505050505081526020016002820180546109829061261a565b80601f01602080910402602001604051908101604052809291908181526020018280546109ae9061261a565b80156109fb5780601f106109d0576101008083540402835291602001916109fb565b820191906000526020600020905b8154815290600101906020018083116109de57829003601f168201915b5050505050815260200160038201548152602001600482018054610a1e9061261a565b80601f0160208091040260200160405190810160405280929190818152602001828054610a4a9061261a565b8015610a975780601f10610a6c57610100808354040283529160200191610a97565b820191906000526020600020905b815481529060010190602001808311610a7a57829003601f168201915b505050505081525050905080600001518160200151826040015183606001518460800151955095509550955095505091939590929450565b610ae1610ada610d5c565b8383611157565b5050565b610af0848484610481565b610b04610afb610d5c565b858585856112c6565b50505050565b6060610b1582611477565b9050919050565b6000600560008473ffffffffffffffffffffffffffffffffffffffff1673ffffffffffffffffffffffffffffffffffffffff16815260200190815260200160002060008373ffffffffffffffffffffffffffffffffffffffff1673ffffffffffffffffffffffffffffffffffffffff16815260200190815260200160002060009054906101000a900460ff16905092915050565b610bb8610f90565b600073ffffffffffffffffffffffffffffffffffffffff168173ffffffffffffffffffffffffffffffffffffffff1603610c2a5760006040517f1e4fbdf7000000000000000000000000000000000000000000000000000000008152600401610c219190612049565b60405180910390fd5b610c3381611017565b50565b6000634906490660e01b7bffffffffffffffffffffffffffffffffffffffffffffffffffffffff1916827bffffffffffffffffffffffffffffffffffffffffffffffffffffffff19161480610c905750610c8f8261158a565b5b9050919050565b600080610ca38361166c565b9050600073ffffffffffffffffffffffffffffffffffffffff168173ffffffffffffffffffffffffffffffffffffffff1603610d1657826040517f7e273289000000000000000000000000000000000000000000000000000000008152600401610d0d919061215f565b60405180910390fd5b80915050919050565b60006004600083815260200190815260200160002060009054906101000a900473ffffffffffffffffffffffffffffffffffffffff169050919050565b600033905090565b610d7183838360016116a9565b505050565b600080610d828461166c565b9050600073ffffffffffffffffffffffffffffffffffffffff168373ffffffffffffffffffffffffffffffffffffffff1614610dc457610dc381848661186e565b5b600073ffffffffffffffffffffffffffffffffffffffff168173ffffffffffffffffffffffffffffffffffffffff1614610e5557610e066000856000806116a9565b6001600360008373ffffffffffffffffffffffffffffffffffffffff1673ffffffffffffffffffffffffffffffffffffffff168152602001908152602001600020600082825403925050819055505b600073ffffffffffffffffffffffffffffffffffffffff168573ffffffffffffffffffffffffffffffffffffffff1614610ed8576001600360008773ffffffffffffffffffffffffffffffffffffffff1673ffffffffffffffffffffffffffffffffffffffff168152602001908152602001600020600082825401925050819055505b846002600086815260200190815260200160002060006101000a81548173ffffffffffffffffffffffffffffffffffffffff021916908373ffffffffffffffffffffffffffffffffffffffff160217905550838573ffffffffffffffffffffffffffffffffffffffff168273ffffffffffffffffffffffffffffffffffffffff167fddf252ad1be2c89b69c2b068fc378daa952ba7f163c4a11628f55a4df523b3ef60405160405180910390a4809150509392505050565b610f98610d5c565b73ffffffffffffffffffffffffffffffffffffffff16610fb6610769565b73ffffffffffffffffffffffffffffffffffffffff161461101557610fd9610d5c565b6040517f118cdaa700000000000000000000000000000000000000000000000000000000815260040161100c9190612049565b60405180910390fd5b565b6000600760009054906101000a900473ffffffffffffffffffffffffffffffffffffffff16905081600760006101000a81548173ffffffffffffffffffffffffffffffffffffffff021916908373ffffffffffffffffffffffffffffffffffffffff1602179055508173ffffffffffffffffffffffffffffffffffffffff168173ffffffffffffffffffffffffffffffffffffffff167f8be0079c531659141344cd1fd0a4f28419497f9722a3daafe3b4186f6b6457e060405160405180910390a35050565b6110f7828260405180602001604052806000815250611932565b5050565b8060066000848152602001908152602001600020908161111b91906128a5565b507ff8e1a15aba9398e019f0b49df1a4fde98ee17ae345cb5f6b5e2c27f5033e8ce78260405161114b919061215f565b60405180910390a15050565b600073ffffffffffffffffffffffffffffffffffffffff168273ffffffffffffffffffffffffffffffffffffffff16036111c857816040517f5b08ba180000000000000000000000000000000000000000000000000000000081526004016111bf9190612049565b60405180910390fd5b80600560008573ffffffffffffffffffffffffffffffffffffffff1673ffffffffffffffffffffffffffffffffffffffff16815260200190815260200160002060008473ffffffffffffffffffffffffffffffffffffffff1673ffffffffffffffffffffffffffffffffffffffff16815260200190815260200160002060006101000a81548160ff0219169083151502179055508173ffffffffffffffffffffffffffffffffffffffff168373ffffffffffffffffffffffffffffffffffffffff167f17307eab39ab6107e8899845ad3d59bd9653f200f220920489ca2b5937696c31836040516112b99190611ed8565b60405180910390a3505050565b60008373ffffffffffffffffffffffffffffffffffffffff163b1115611470578273ffffffffffffffffffffffffffffffffffffffff1663150b7a02868685856040518563ffffffff1660e01b815260040161132594939291906129cc565b6020604051808303816000875af192505050801561136157506040513d601f19601f8201168201806040525081019061135e9190612a2d565b60015b6113e5573d8060008114611391576040519150601f19603f3d011682016040523d82523d6000602084013e611396565b606091505b5060008151036113dd57836040517f64a0ae920000000000000000000000000000000000000000000000000000000081526004016113d49190612049565b60405180910390fd5b805181602001fd5b63150b7a0260e01b7bffffffffffffffffffffffffffffffffffffffffffffffffffffffff1916817bffffffffffffffffffffffffffffffffffffffffffffffffffffffff19161461146e57836040517f64a0ae920000000000000000000000000000000000000000000000000000000081526004016114659190612049565b60405180910390fd5b505b5050505050565b606061148282610c97565b5060006006600084815260200190815260200160002080546114a39061261a565b80601f01602080910402602001604051908101604052809291908181526020018280546114cf9061261a565b801561151c5780601f106114f15761010080835404028352916020019161151c565b820191906000526020600020905b8154815290600101906020018083116114ff57829003601f168201915b50505050509050600061152d611956565b90506000815103611542578192505050611585565b60008251111561157757808260405160200161155f929190612a96565b60405160208183030381529060405292505050611585565b61158084611976565b925050505b919050565b60007f80ac58cd000000000000000000000000000000000000000000000000000000007bffffffffffffffffffffffffffffffffffffffffffffffffffffffff1916827bffffffffffffffffffffffffffffffffffffffffffffffffffffffff1916148061165557507f5b5e139f000000000000000000000000000000000000000000000000000000007bffffffffffffffffffffffffffffffffffffffffffffffffffffffff1916827bffffffffffffffffffffffffffffffffffffffffffffffffffffffff1916145b806116655750611664826119df565b5b9050919050565b60006002600083815260200190815260200160002060009054906101000a900473ffffffffffffffffffffffffffffffffffffffff169050919050565b80806116e25750600073ffffffffffffffffffffffffffffffffffffffff168273ffffffffffffffffffffffffffffffffffffffff1614155b156118165760006116f284610c97565b9050600073ffffffffffffffffffffffffffffffffffffffff168373ffffffffffffffffffffffffffffffffffffffff161415801561175d57508273ffffffffffffffffffffffffffffffffffffffff168173ffffffffffffffffffffffffffffffffffffffff1614155b8015611770575061176e8184610b1c565b155b156117b257826040517fa9fbf51f0000000000000000000000000000000000000000000000000000000081526004016117a99190612049565b60405180910390fd5b811561181457838573ffffffffffffffffffffffffffffffffffffffff168273ffffffffffffffffffffffffffffffffffffffff167f8c5be1e5ebec7d5bd14f71427d1e84f3dd0314c0f7b2291e5b200ac8c7c3b92560405160405180910390a45b505b836004600085815260200190815260200160002060006101000a81548173ffffffffffffffffffffffffffffffffffffffff021916908373ffffffffffffffffffffffffffffffffffffffff16021790555050505050565b611879838383611a49565b61192d57600073ffffffffffffffffffffffffffffffffffffffff168373ffffffffffffffffffffffffffffffffffffffff16036118ee57806040517f7e2732890000000000000000000000000000000000000000000000000000000081526004016118e5919061215f565b60405180910390fd5b81816040517f177e802f000000000000000000000000000000000000000000000000000000008152600401611924929190612aba565b60405180910390fd5b505050565b61193c8383611b0a565b611951611947610d5c565b60008585856112c6565b505050565b60606040518060600160405280603a8152602001612b13603a9139905090565b606061198182610c97565b50600061198c611956565b905060008151116119ac57604051806020016040528060008152506119d7565b806119b684611c03565b6040516020016119c7929190612a96565b6040516020818303038152906040525b915050919050565b60007f01ffc9a7000000000000000000000000000000000000000000000000000000007bffffffffffffffffffffffffffffffffffffffffffffffffffffffff1916827bffffffffffffffffffffffffffffffffffffffffffffffffffffffff1916149050919050565b60008073ffffffffffffffffffffffffffffffffffffffff168373ffffffffffffffffffffffffffffffffffffffff1614158015611b0157508273ffffffffffffffffffffffffffffffffffffffff168473ffffffffffffffffffffffffffffffffffffffff161480611ac25750611ac18484610b1c565b5b80611b0057508273ffffffffffffffffffffffffffffffffffffffff16611ae883610d1f565b73ffffffffffffffffffffffffffffffffffffffff16145b5b90509392505050565b600073ffffffffffffffffffffffffffffffffffffffff168273ffffffffffffffffffffffffffffffffffffffff1603611b7c5760006040517f64a0ae92000000000000000000000000000000000000000000000000000000008152600401611b739190612049565b60405180910390fd5b6000611b8a83836000610d76565b9050600073ffffffffffffffffffffffffffffffffffffffff168173ffffffffffffffffffffffffffffffffffffffff1614611bfe5760006040517f73c6ac6e000000000000000000000000000000000000000000000000000000008152600401611bf59190612049565b60405180910390fd5b505050565b606060006001611c1284611cd1565b01905060008167ffffffffffffffff811115611c3157611c30612184565b5b6040519080825280601f01601f191660200182016040528015611c635781602001600182028036833780820191505090505b509050600082602001820190505b600115611cc6578080600190039150507f3031323334353637383961626364656600000000000000000000000000000000600a86061a8153600a8581611cba57611cb9612ae3565b5b04945060008503611c71575b819350505050919050565b600080600090507a184f03e93ff9f4daa797ed6e38ed64bf6a1f0100000000000000008310611d2f577a184f03e93ff9f4daa797ed6e38ed64bf6a1f0100000000000000008381611d2557611d24612ae3565b5b0492506040810190505b6d04ee2d6d415b85acef81000000008310611d6c576d04ee2d6d415b85acef81000000008381611d6257611d61612ae3565b5b0492506020810190505b662386f26fc100008310611d9b57662386f26fc100008381611d9157611d90612ae3565b5b0492506010810190505b6305f5e1008310611dc4576305f5e1008381611dba57611db9612ae3565b5b0492506008810190505b6127108310611de9576127108381611ddf57611dde612ae3565b5b0492506004810190505b60648310611e0c5760648381611e0257611e01612ae3565b5b0492506002810190505b600a8310611e1b576001810190505b80915050919050565b6000604051905090565b600080fd5b600080fd5b60007fffffffff0000000000000000000000000000000000000000000000000000000082169050919050565b611e6d81611e38565b8114611e7857600080fd5b50565b600081359050611e8a81611e64565b92915050565b600060208284031215611ea657611ea5611e2e565b5b6000611eb484828501611e7b565b91505092915050565b60008115159050919050565b611ed281611ebd565b82525050565b6000602082019050611eed6000830184611ec9565b92915050565b600081519050919050565b600082825260208201905092915050565b60005b83811015611f2d578082015181840152602081019050611f12565b60008484015250505050565b6000601f19601f8301169050919050565b6000611f5582611ef3565b611f5f8185611efe565b9350611f6f818560208601611f0f565b611f7881611f39565b840191505092915050565b60006020820190508181036000830152611f9d8184611f4a565b905092915050565b6000819050919050565b611fb881611fa5565b8114611fc357600080fd5b50565b600081359050611fd581611faf565b92915050565b600060208284031215611ff157611ff0611e2e565b5b6000611fff84828501611fc6565b91505092915050565b600073ffffffffffffffffffffffffffffffffffffffff82169050919050565b600061203382612008565b9050919050565b61204381612028565b82525050565b600060208201905061205e600083018461203a565b92915050565b61206d81612028565b811461207857600080fd5b50565b60008135905061208a81612064565b92915050565b600080604083850312156120a7576120a6611e2e565b5b60006120b58582860161207b565b92505060206120c685828601611fc6565b9150509250929050565b6000806000606084860312156120e9576120e8611e2e565b5b60006120f78682870161207b565b93505060206121088682870161207b565b925050604061211986828701611fc6565b9150509250925092565b60006020828403121561213957612138611e2e565b5b60006121478482850161207b565b91505092915050565b61215981611fa5565b82525050565b60006020820190506121746000830184612150565b92915050565b600080fd5b600080fd5b7f4e487b7100000000000000000000000000000000000000000000000000000000600052604160045260246000fd5b6121bc82611f39565b810181811067ffffffffffffffff821117156121db576121da612184565b5b80604052505050565b60006121ee611e24565b90506121fa82826121b3565b919050565b600067ffffffffffffffff82111561221a57612219612184565b5b61222382611f39565b9050602081019050919050565b82818337600083830152505050565b600061225261224d846121ff565b6121e4565b90508281526020810184848401111561226e5761226d61217f565b5b612279848285612230565b509392505050565b600082601f8301126122965761229561217a565b5b81356122a684826020860161223f565b91505092915050565b60008060008060008060c087890312156122cc576122cb611e2e565b5b60006122da89828a0161207b565b965050602087013567ffffffffffffffff8111156122fb576122fa611e33565b5b61230789828a01612281565b955050604087013567ffffffffffffffff81111561232857612327611e33565b5b61233489828a01612281565b945050606087013567ffffffffffffffff81111561235557612354611e33565b5b61236189828a01612281565b935050608061237289828a01611fc6565b92505060a087013567ffffffffffffffff81111561239357612392611e33565b5b61239f89828a01612281565b9150509295509295509295565b600060a08201905081810360008301526123c68188611f4a565b905081810360208301526123da8187611f4a565b905081810360408301526123ee8186611f4a565b90506123fd6060830185612150565b818103608083015261240f8184611f4a565b90509695505050505050565b61242481611ebd565b811461242f57600080fd5b50565b6000813590506124418161241b565b92915050565b6000806040838503121561245e5761245d611e2e565b5b600061246c8582860161207b565b925050602061247d85828601612432565b9150509250929050565b600067ffffffffffffffff8211156124a2576124a1612184565b5b6124ab82611f39565b9050602081019050919050565b60006124cb6124c684612487565b6121e4565b9050828152602081018484840111156124e7576124e661217f565b5b6124f2848285612230565b509392505050565b600082601f83011261250f5761250e61217a565b5b813561251f8482602086016124b8565b91505092915050565b6000806000806080858703121561254257612541611e2e565b5b60006125508782880161207b565b94505060206125618782880161207b565b935050604061257287828801611fc6565b925050606085013567ffffffffffffffff81111561259357612592611e33565b5b61259f878288016124fa565b91505092959194509250565b600080604083850312156125c2576125c1611e2e565b5b60006125d08582860161207b565b92505060206125e18582860161207b565b9150509250929050565b7f4e487b7100000000000000000000000000000000000000000000000000000000600052602260045260246000fd5b6000600282049050600182168061263257607f821691505b602082108103612645576126446125eb565b5b50919050565b6000606082019050612660600083018661203a565b61266d6020830185612150565b61267a604083018461203a565b949350505050565b7f4e487b7100000000000000000000000000000000000000000000000000000000600052601160045260246000fd5b60006126bc82611fa5565b91507fffffffffffffffffffffffffffffffffffffffffffffffffffffffffffffffff82036126ee576126ed612682565b5b600182019050919050565b60008190508160005260206000209050919050565b60006020601f8301049050919050565b600082821b905092915050565b60006008830261275b7fffffffffffffffffffffffffffffffffffffffffffffffffffffffffffffffff8261271e565b612765868361271e565b95508019841693508086168417925050509392505050565b6000819050919050565b60006127a261279d61279884611fa5565b61277d565b611fa5565b9050919050565b6000819050919050565b6127bc83612787565b6127d06127c8826127a9565b84845461272b565b825550505050565b600090565b6127e56127d8565b6127f08184846127b3565b505050565b5b81811015612814576128096000826127dd565b6001810190506127f6565b5050565b601f8211156128595761282a816126f9565b6128338461270e565b81016020851015612842578190505b61285661284e8561270e565b8301826127f5565b50505b505050565b600082821c905092915050565b600061287c6000198460080261285e565b1980831691505092915050565b6000612895838361286b565b9150826002028217905092915050565b6128ae82611ef3565b67ffffffffffffffff8111156128c7576128c6612184565b5b6128d1825461261a565b6128dc828285612818565b600060209050601f83116001811461290f57600084156128fd578287015190505b6129078582612889565b86555061296f565b601f19841661291d866126f9565b60005b8281101561294557848901518255600182019150602085019450602081019050612920565b86831015612962578489015161295e601f89168261286b565b8355505b6001600288020188555050505b505050505050565b600081519050919050565b600082825260208201905092915050565b600061299e82612977565b6129a88185612982565b93506129b8818560208601611f0f565b6129c181611f39565b840191505092915050565b60006080820190506129e1600083018761203a565b6129ee602083018661203a565b6129fb6040830185612150565b8181036060830152612a0d8184612993565b905095945050505050565b600081519050612a2781611e64565b92915050565b600060208284031215612a4357612a42611e2e565b5b6000612a5184828501612a18565b91505092915050565b600081905092915050565b6000612a7082611ef3565b612a7a8185612a5a565b9350612a8a818560208601611f0f565b80840191505092915050565b6000612aa28285612a65565b9150612aae8284612a65565b91508190509392505050565b6000604082019050612acf600083018561203a565b612adc6020830184612150565b9392505050565b7f4e487b7100000000000000000000000000000000000000000000000000000000600052601260045260246000fdfe68747470733a2f2f6372696d736f6e2d6f63636173696f6e616c2d766963756e612d3638392e6d7970696e6174612e636c6f75642f697066732fa2646970667358221220768bfeeceb80830f255a0a6404bc8209545eaf17e2f8b604195b818904d5712464736f6c634300081c0033",
  "linkReferences": {},
  "deployedLinkReferences": {}
}